{
  "_format": "hh-sol-artifact-1",
  "contractName": "BuyMeABurger",
  "sourceName": "contracts/BuyMeABurger.sol",
  "abi": [
    {
      "inputs": [],
      "stateMutability": "nonpayable",
      "type": "constructor"
    },
    {
      "anonymous": false,
      "inputs": [
        {
          "indexed": false,
          "internalType": "string",
          "name": "name",
          "type": "string"
        },
        {
          "indexed": false,
          "internalType": "string",
          "name": "text",
          "type": "string"
        },
        {
          "indexed": false,
          "internalType": "uint256",
          "name": "tipValue",
          "type": "uint256"
        },
        {
          "indexed": false,
          "internalType": "address",
          "name": "sender",
          "type": "address"
        }
      ],
      "name": "MsgSent",
      "type": "event"
    },
    {
      "inputs": [
        {
          "internalType": "string",
          "name": "_name",
          "type": "string"
        },
        {
          "internalType": "string",
          "name": "_text",
          "type": "string"
        }
      ],
      "name": "buyMeABurger",
      "outputs": [],
      "stateMutability": "payable",
      "type": "function"
    },
    {
      "inputs": [],
      "name": "getContractBalance",
      "outputs": [
        {
          "internalType": "uint256",
          "name": "",
          "type": "uint256"
        }
      ],
      "stateMutability": "view",
      "type": "function"
    },
    {
      "inputs": [],
      "name": "getSenders",
      "outputs": [
        {
          "components": [
            {
              "internalType": "string",
              "name": "name",
              "type": "string"
            },
            {
              "internalType": "string",
              "name": "text",
              "type": "string"
            },
            {
              "internalType": "uint256",
              "name": "tipValue",
              "type": "uint256"
            },
            {
              "internalType": "address",
              "name": "sender",
              "type": "address"
            }
          ],
          "internalType": "struct BuyMeABurger.Message[]",
          "name": "",
          "type": "tuple[]"
        }
      ],
      "stateMutability": "view",
      "type": "function"
    },
    {
      "inputs": [],
      "name": "owner",
      "outputs": [
        {
          "internalType": "address",
          "name": "",
          "type": "address"
        }
      ],
      "stateMutability": "view",
      "type": "function"
    },
    {
      "inputs": [],
      "name": "updateOwner",
      "outputs": [],
      "stateMutability": "nonpayable",
      "type": "function"
    },
    {
      "inputs": [],
      "name": "withdraw",
      "outputs": [],
      "stateMutability": "payable",
      "type": "function"
    }
  ],
  "bytecode": "0x608060405234801561001057600080fd5b50336000806101000a81548173ffffffffffffffffffffffffffffffffffffffff021916908373ffffffffffffffffffffffffffffffffffffffff160217905550611125806100606000396000f3fe6080604052600436106100555760003560e01c8063128e04231461005a5780633ccfd60b146100855780636f9fb98a1461008f5780638da5cb5b146100ba578063bc5920ba146100e5578063eeb90544146100fc575b600080fd5b34801561006657600080fd5b5061006f610118565b60405161007c9190610921565b60405180910390f35b61008d6102fb565b005b34801561009b57600080fd5b506100a46104aa565b6040516100b19190610952565b60405180910390f35b3480156100c657600080fd5b506100cf6104b2565b6040516100dc919061097c565b60405180910390f35b3480156100f157600080fd5b506100fa6104d6565b005b61011660048036038101906101119190610ae0565b6105a6565b005b60606001805480602002602001604051908101604052809291908181526020016000905b828210156102f2578382906000526020600020906004020160405180608001604052908160008201805461016f90610b87565b80601f016020809104026020016040519081016040528092919081815260200182805461019b90610b87565b80156101e85780601f106101bd576101008083540402835291602001916101e8565b820191906000526020600020905b8154815290600101906020018083116101cb57829003601f168201915b5050505050815260200160018201805461020190610b87565b80601f016020809104026020016040519081016040528092919081815260200182805461022d90610b87565b801561027a5780601f1061024f5761010080835404028352916020019161027a565b820191906000526020600020905b81548152906001019060200180831161025d57829003601f168201915b50505050508152602001600282015481526020016003820160009054906101000a900473ffffffffffffffffffffffffffffffffffffffff1673ffffffffffffffffffffffffffffffffffffffff1673ffffffffffffffffffffffffffffffffffffffff16815250508152602001906001019061013c565b50505050905090565b60008054906101000a900473ffffffffffffffffffffffffffffffffffffffff1673ffffffffffffffffffffffffffffffffffffffff163373ffffffffffffffffffffffffffffffffffffffff1614610389576040517f08c379a000000000000000000000000000000000000000000000000000000000815260040161038090610c15565b60405180910390fd5b60006103936104aa565b116103d3576040517f08c379a00000000000000000000000000000000000000000000000000000000081526004016103ca90610c81565b60405180910390fd5b60008060009054906101000a900473ffffffffffffffffffffffffffffffffffffffff1673ffffffffffffffffffffffffffffffffffffffff166104156104aa565b60405161042190610cd2565b60006040518083038185875af1925050503d806000811461045e576040519150601f19603f3d011682016040523d82523d6000602084013e610463565b606091505b50509050806104a7576040517f08c379a000000000000000000000000000000000000000000000000000000000815260040161049e90610d33565b60405180910390fd5b50565b600047905090565b60008054906101000a900473ffffffffffffffffffffffffffffffffffffffff1681565b60008054906101000a900473ffffffffffffffffffffffffffffffffffffffff1673ffffffffffffffffffffffffffffffffffffffff163373ffffffffffffffffffffffffffffffffffffffff1614610564576040517f08c379a000000000000000000000000000000000000000000000000000000000815260040161055b90610c15565b60405180910390fd5b336000806101000a81548173ffffffffffffffffffffffffffffffffffffffff021916908373ffffffffffffffffffffffffffffffffffffffff160217905550565b600034116105e9576040517f08c379a00000000000000000000000000000000000000000000000000000000081526004016105e090610dc5565b60405180910390fd5b600160405180608001604052808481526020018381526020013481526020013373ffffffffffffffffffffffffffffffffffffffff16815250908060018154018082558091505060019003906000526020600020906004020160009091909190915060008201518160000190816106609190610f91565b5060208201518160010190816106769190610f91565b506040820151816002015560608201518160030160006101000a81548173ffffffffffffffffffffffffffffffffffffffff021916908373ffffffffffffffffffffffffffffffffffffffff16021790555050507fd8b460ed7534e47932ed3d1dc582a80571398cab2a1d67158e710fd511e2c6eb828234336040516106ff949392919061109c565b60405180910390a15050565b600081519050919050565b600082825260208201905092915050565b6000819050602082019050919050565b600081519050919050565b600082825260208201905092915050565b60005b83811015610771578082015181840152602081019050610756565b60008484015250505050565b6000601f19601f8301169050919050565b600061079982610737565b6107a38185610742565b93506107b3818560208601610753565b6107bc8161077d565b840191505092915050565b6000819050919050565b6107da816107c7565b82525050565b600073ffffffffffffffffffffffffffffffffffffffff82169050919050565b600061080b826107e0565b9050919050565b61081b81610800565b82525050565b6000608083016000830151848203600086015261083e828261078e565b91505060208301518482036020860152610858828261078e565b915050604083015161086d60408601826107d1565b5060608301516108806060860182610812565b508091505092915050565b60006108978383610821565b905092915050565b6000602082019050919050565b60006108b78261070b565b6108c18185610716565b9350836020820285016108d385610727565b8060005b8581101561090f57848403895281516108f0858261088b565b94506108fb8361089f565b925060208a019950506001810190506108d7565b50829750879550505050505092915050565b6000602082019050818103600083015261093b81846108ac565b905092915050565b61094c816107c7565b82525050565b60006020820190506109676000830184610943565b92915050565b61097681610800565b82525050565b6000602082019050610991600083018461096d565b92915050565b6000604051905090565b600080fd5b600080fd5b600080fd5b600080fd5b7f4e487b7100000000000000000000000000000000000000000000000000000000600052604160045260246000fd5b6109ed8261077d565b810181811067ffffffffffffffff82111715610a0c57610a0b6109b5565b5b80604052505050565b6000610a1f610997565b9050610a2b82826109e4565b919050565b600067ffffffffffffffff821115610a4b57610a4a6109b5565b5b610a548261077d565b9050602081019050919050565b82818337600083830152505050565b6000610a83610a7e84610a30565b610a15565b905082815260208101848484011115610a9f57610a9e6109b0565b5b610aaa848285610a61565b509392505050565b600082601f830112610ac757610ac66109ab565b5b8135610ad7848260208601610a70565b91505092915050565b60008060408385031215610af757610af66109a1565b5b600083013567ffffffffffffffff811115610b1557610b146109a6565b5b610b2185828601610ab2565b925050602083013567ffffffffffffffff811115610b4257610b416109a6565b5b610b4e85828601610ab2565b9150509250929050565b7f4e487b7100000000000000000000000000000000000000000000000000000000600052602260045260246000fd5b60006002820490506001821680610b9f57607f821691505b602082108103610bb257610bb1610b58565b5b50919050565b600082825260208201905092915050565b7f596f75206172656e277420746865206f776e6572000000000000000000000000600082015250565b6000610bff601483610bb8565b9150610c0a82610bc9565b602082019050919050565b60006020820190508181036000830152610c2e81610bf2565b9050919050565b7f6e6f2066756e647320746f207769746864726177000000000000000000000000600082015250565b6000610c6b601483610bb8565b9150610c7682610c35565b602082019050919050565b60006020820190508181036000830152610c9a81610c5e565b9050919050565b600081905092915050565b50565b6000610cbc600083610ca1565b9150610cc782610cac565b600082019050919050565b6000610cdd82610caf565b9150819050919050565b7f4661696c656420746f2073656e64204574686572000000000000000000000000600082015250565b6000610d1d601483610bb8565b9150610d2882610ce7565b602082019050919050565b60006020820190508181036000830152610d4c81610d10565b9050919050565b7f63616e206e6f742062757920612068616d62657267657220776974682030206560008201527f7468000000000000000000000000000000000000000000000000000000000000602082015250565b6000610daf602283610bb8565b9150610dba82610d53565b604082019050919050565b60006020820190508181036000830152610dde81610da2565b9050919050565b60008190508160005260206000209050919050565b60006020601f8301049050919050565b600082821b905092915050565b600060088302610e477fffffffffffffffffffffffffffffffffffffffffffffffffffffffffffffffff82610e0a565b610e518683610e0a565b95508019841693508086168417925050509392505050565b6000819050919050565b6000610e8e610e89610e84846107c7565b610e69565b6107c7565b9050919050565b6000819050919050565b610ea883610e73565b610ebc610eb482610e95565b848454610e17565b825550505050565b600090565b610ed1610ec4565b610edc818484610e9f565b505050565b5b81811015610f0057610ef5600082610ec9565b600181019050610ee2565b5050565b601f821115610f4557610f1681610de5565b610f1f84610dfa565b81016020851015610f2e578190505b610f42610f3a85610dfa565b830182610ee1565b50505b505050565b600082821c905092915050565b6000610f6860001984600802610f4a565b1980831691505092915050565b6000610f818383610f57565b9150826002028217905092915050565b610f9a82610737565b67ffffffffffffffff811115610fb357610fb26109b5565b5b610fbd8254610b87565b610fc8828285610f04565b600060209050601f831160018114610ffb5760008415610fe9578287015190505b610ff38582610f75565b86555061105b565b601f19841661100986610de5565b60005b828110156110315784890151825560018201915060208501945060208101905061100c565b8683101561104e578489015161104a601f891682610f57565b8355505b6001600288020188555050505b505050505050565b600061106e82610737565b6110788185610bb8565b9350611088818560208601610753565b6110918161077d565b840191505092915050565b600060808201905081810360008301526110b68187611063565b905081810360208301526110ca8186611063565b90506110d96040830185610943565b6110e6606083018461096d565b9594505050505056fea2646970667358221220b925e2a6e18a28263c9462434e2c08d565f63c2b43a9df1c39436cf2a78de12864736f6c63430008110033",
  "linkReferences": {},
  "deployedLinkReferences": {}
}